:100000001CC100004BC1000049C1000047C10000F5
:1000100045C1000043C1000041C100003FC10000D4
:100020003DC100003BC1000039C1000037C10000E4
:1000300035C1000033C1000031C100002FC10000F4
:100040002DC100002BC1000029C1000027C1000004
:1000500025C1000023C1000021C100000C94A91497
:100060001DC100000C9420180C94561817C10000F4
:1000700015C1000013C1000011C100000FC1000034
:100080000DC100000BC1000009C1000007C1000044
:1000900005C1000003C1000001C10000FFC0000055
:1000A000FDC00000FBC00000F9C00000F7C0000068
:1000B000F5C00000F3C00000F1C00000EFC0000078
:1000C000EDC00000EBC00000E9C00000E7C0000088
:1000D000E5C00000E3C00000E1C00000DFC0000098
:1000E000DDC000000000000A0B0C00000000000D45
:1000F0000E0F0900000000080405060000000000C3
:1001000000111213000000000000000000000000B9
:1001100000000000000000000000000000000000DF
:1001200000000000000000000000000000000000CF
:10013000000000000000000000030102040810207D
:1001400040800102040810204001020408102040F1
:100150008080081001020408102040800102040879
:10016000102040800102010204081020408001029A
:10017000040810204004804020100804020180017F
:100180000204081020408001020408102040802052
:1001900005050505050505050808080808080802FD
:1001A000020202020202020807070C0C0C0C0C0CE3
:1001B0000C0C0404040404040404070703030303ED
:1001C000030303030A0A0A0A0A0A0A0701010101D2
:1001D000010101010A06060606060606060B0B0BC0
:1001E0000B0B0B0B0B07000020002300260029003F
:1001F0002C002F003200000100000301060109015C
:1002000000002200250028002B002E0031003400C1
:1002100002010000050108010B010000210024007B
:1002200027002A002D0030003300010100000401E6
:1002300007010A0112098818320911241FBECFEFE5
:10024000D1E2DEBFCDBF00E00CBF15E0A0E0B2E020
:10025000E4EBFFE300E00BBF02C007900D92A03F6C
:10026000B107D9F726E0A0EFB5E001C01D92A93F84
:10027000B207E1F711E0CCE1D1E000E006C0219740
:100280000109802FFE010E94831DCA31D10780E041
:100290000807A9F70E943A1B0C94C91FB1CE26E0AB
:1002A00040E855E260E070E088E596E00E94C01703
:1002B00060E090E080E00E94BB1F60E081E090E0A1
:1002C0000E94BB1F61E0809130020E94471661E0EE
:1002D00080912E020E94471661E080912C020E94BC
:1002E000471661E080912A020E94471661E08091E2
:1002F00028020E94471661E0809126020E9447165C
:1003000061E0809124020E94471661E08091220200
:100310000E94471661E0809120020E94471661E02A
:1003200080911E020E94471661E080911C020E948B
:10033000471661E080911A020E94471661E08091A1
:1003400018020E94471661E0809116020E9447162B
:1003500061E0809114020E94471661E080911202D0
:100360000E94471660E08CE20E94471660E08DE232
:100370000E94471662E081E30E94471662E083E331
:100380000E94471662E082E30E94471662E080E323
:100390000E94471620E044E068E280E396E00E9475
:1003A000011480E396E00E94E61240E060E080E302
:1003B00096E00E94AC1263E372E080E396E00E9454
:1003C000F11864EF71E080E090E00E94181580E37E
:1003D00096E00E94E61241E060E080E396E00E9431
:1003E000AC1268E572E080E396E00E94F11880E3C9
:1003F00096E00E94E61240E060E080E396E00E9412
:10040000AC1280E396E00E949F1264EF71E080E0FE
:1004100090E00E94181580E396E00E94A51264EF18
:1004200071E080E090E00E94181580E396E00E9461
:10043000E61240E060E080E396E00E94AC1267E7DD
:1004400072E080E396E00E94F11841E060E080E312
:1004500096E00E94AC126AE972E080E396E00E94A6
:10046000F11842E060E080E396E00E94AC1264EB99
:1004700072E080E396E00E94F11843E060E080E3E0
:1004800096E00E94AC1269EC72E080E396E00E9474
:10049000F11840E060E080E396E00E94AC1280E357
:1004A00096E00E949F1264EF71E080E090E00E946D
:1004B000181580E396E00E94A51264EF71E080E0D9
:1004C00090E00C9418158730910508F038C0FC01B5
:1004D0008827E259FD4F8F4F0C94831DA6027502A9
:1004E0007D029802A002A802B40280912606909193
:1004F0002706019721F541E007C0809126069091DB
:1005000027060297E1F442E060E080E396E00E9473
:10051000AC1280E396E00E949F1264EF71E080E0ED
:1005200090E00E94181580E396E00E94A51216C084
:10053000809126069091270643E0039729F30895BA
:1005400080912606909127060497C9F740E0DCCFFA
:100550008091260690912706059769F264EF71E075
:1005600080E090E00C941815809126069091270663
:10057000069729F78091F8059091F9050197F9F60A
:10058000C2CF8930910508F071C1FC018827E4537E
:10059000FD4F8F4F0C94831DD5021D0348035B0351
:1005A0006E039903AC03DD03050481E090E09093B2
:1005B000F3058093F20580E396E00E94E61240E0A6
:1005C00060E080E396E00E94AC1269ED72E080E3A7
:1005D00096E00E94F11841E060E080E396E00E941E
:1005E000AC126DEF72E080E396E00E94F11842E0F9
:1005F00060E080E396E00E94AC1266E273E080E384
:1006000096E00E94F11842E063E080E396E00E94E9
:10061000AC1280E396E00E949F1264EF71E080E0EC
:1006200090E00E94181580E396E00E94A51264EF06
:1006300071E080E090E00C94181582E090E09093D7
:10064000F3058093F20580E396E00E94E61240E015
:1006500060E080E396E00E94AC126AE972E080E319
:1006600096E00E94F11841E060E080E396E00E948D
:10067000AC126DEF72E080E396E00E94F11842E068
:1006800060E080E396E00E94AC126CE473E0B7CFC8
:1006900083E090E09093F3058093F20580E396E089
:1006A0000E94E61240E060E080E396E00E94AC1217
:1006B00064EB72E0D4CF84E090E09093F3058093F4
:1006C000F20580E396E00E94E61240E060E080E3FD
:1006D00096E00E94AC1262E773E0C1CF85E090E043
:1006E0009093F3058093F20580E396E00E94E61272
:1006F00040E060E080E396E00E94AC1261E873E0C5
:1007000080E396E00E94F11841E060E080E396E02B
:100710000E94AC126DEF72E080E396E00E94F11847
:1007200042E060E080E396E00E94AC1267EA73E08A
:1007300066CF86E090E09093F3058093F20580E326
:1007400096E00E94E61240E060E080E396E00E94BE
:10075000AC126DEC73E0D4CF87E090E09093F3059A
:100760008093F20580E396E00E94E61240E060E0AC
:1007700080E396E00E94AC1265ED73E080E396E0C2
:100780000E94F11841E060E080E396E00E94AC1224
:100790006DEF72E080E396E00E94F11842E060E0C5
:1007A00080E396E00E94AC126FED73E080E396E088
:1007B0000E94F11840E060E028CF80E396E00E94BC
:1007C000E61240E060E080E396E00E94AC1265E053
:1007D00074E080E396E00E94F11841E060E080E37D
:1007E00096E00E94AC126DE274E080E396E00E9415
:1007F000F11842E060E080E396E00E94AC1266E30C
:1008000074E080E396E00C94F11880E396E00E9497
:10081000E61240E060E080E396E00E94AC1267E7F9
:1008200072E080E396E00E94F11841E060E080E32E
:1008300096E00E94AC126AE972E080E396E00E94C2
:10084000F11842E060E080E396E00E94AC1264EBB5
:1008500072E080E396E00E94F11843E060E080E3FC
:1008600096E00E94AC1269EC72E0CBCF0895823022
:10087000910509F450C02CF4009759F0019771F1DB
:1008800008958330910509F463C0049709F47DC08D
:10089000089542E063E080E396E00E94AC1280E3BA
:1008A00096E00E949F1264EF71E080E090E00E9469
:1008B000181580E396E00E94A51264EF71E080E0D5
:1008C00090E00E94181581E090E090930B068093D1
:1008D0000A061092F9051092F805089542E069E0C1
:1008E00080E396E00E94AC1280E396E00E949F12A3
:1008F00064EF71E080E090E00E94181580E396E0DC
:100900000E94A51264EF71E080E090E00E9418154B
:1009100082E090E0DACF42E060E180E396E00E947E
:10092000AC1280E396E00E949F1264EF71E080E0D9
:1009300090E00E94181580E396E00E94A51264EFF3
:1009400071E080E090E00E94181583E090E0BDCF58
:1009500042E067E180E396E00E94AC1280E396E01B
:100960000E949F1264EF71E080E090E00E941815F1
:1009700080E396E00E94A51264EF71E080E090E0D1
:100980000E94181584E090E0A0CF42E062E280E38C
:1009900096E00E94AC1280E396E00E949F1264EF02
:1009A00071E080E090E00E94181580E396E00E94DC
:1009B000A51264EF71E080E090E00E94181585E0D8
:1009C00090E083CF60E0809130020E94831660E067
:1009D00080912A020E94831660E080912E020E947C
:1009E000831660E080912C020E94831660E0809163
:1009F00028020E94831660E0809122020E948316E2
:100A000060E0809126020E94831660E080912402BB
:100A10000E94831660E0809120020E94831660E0AD
:100A200080911E020C9483168DE20E94B0169C01E8
:100A300091E02115310509F490E09093F005809143
:100A4000F105981751F1232B41F161E574E088E538
:100A500096E00E940219B6DF8DE20E94B01601975F
:100A6000D9F38DE20E94B0169C0191E02115310569
:100A700009F490E09093F0058091F105981789F3BF
:100A8000232B79F38DE20E94B0160197D9F36AEF18
:100A900070E080E090E00C9418150895CF92DF92FA
:100AA000EF92FF92C1DF60E0809130020E948316D6
:100AB00060E080912A020E94831660E080912E02FD
:100AC0000E94831660E080912C020E9483168AE0C7
:100AD0000E94BB15BC01990F880B990B0E94461C04
:100AE0002AE038E240EA5BE30E94FA1C6B017C01D9
:100AF00022E030E0BC01A60188E596E00E94AD1A34
:100B000043E060E080E396E00E94AC1264E674E0AB
:100B100080E396E00E94F11861E0809130020E942B
:100B2000831661E080912A020E94831660E0809122
:100B30002E020E94831660E080912C020E94831690
:100B400062E370E080E090E00E9418152DEC3CEC30
:100B50004CE45EE3C701B6010E94AC1B87FFA2CF45
:100B600061E080911C020E94831660E08091300257
:100B70000E94831660E080912A020E94831660E042
:100B800080912E020E94831660E080912C020E94C8
:100B9000831668EC70E080E090E00E94181560E039
:100BA00080911C020E94831662E874E088E596E05A
:100BB000FF90EF90DF90CF900C940219CF92DF92CC
:100BC000EF92FF9231DF60E0809130020E94831645
:100BD00060E080912A020E94831660E080912E02DC
:100BE0000E94831660E080912C020E9483168DE49F
:100BF0000E94BB15BC01990F880B990B0E94461CE3
:100C00002AE038E240EA5BE30E94FA1C6B017C01B7
:100C100022E030E0BC01A60188E596E00E94AD1A12
:100C200043E060E080E396E00E94AC1269E874E083
:100C300080E396E00E94F11860E0809130020E940B
:100C4000831660E080912A020E94831661E0809101
:100C50002E020E94831661E080912C020E9483166E
:100C600064EF71E080E090E00E9418152DEC3CEC00
:100C70004CE45EE3C701B6010E94AC1B87FFA2CF24
:100C800061E0809118020E94831660E0809130023A
:100C90000E94831660E080912A020E94831660E021
:100CA00080912E020E94831660E080912C020E94A7
:100CB000831668EC70E080E090E00E94181560E018
:100CC000809118020E94831660EB74E088E596E03C
:100CD000FF90EF90DF90CF900C940219AF92BF92EB
:100CE000CF92DF92EF92FF920F931F93CF93DF93F8
:100CF0009BDE43E060E080E396E00E94AC1267EB8D
:100D000074E080E396E00E94F11880E3A82E82E070
:100D1000B82E61E0F50180810E9483169AE2C92E07
:100D200092E0D92E61E0F60180810E9483162EE2C6
:100D3000E22E22E0F22E60E0F70180810E9483160D
:100D40000CE212E060E0F80180810E94831660ED01
:100D500077E080E090E00E941815C8E1D2E061E001
:100D600088810E94831660E0F50180810E948316CD
:100D700060E0F60180810E94831660E0F7018081C7
:100D80000E94831660E0F80180810E94831668EC5F
:100D900070E080E090E00E94181560E088810E9479
:100DA000831660EB74E088E596E0DF91CF911F91A8
:100DB0000F91FF90EF90DF90CF90BF90AF900C9489
:100DC0000219CF92DF92EF92FF922EDE60E08091C7
:100DD00028020E94831660E0809122020E948316FE
:100DE00060E0809126020E94831660E080912402D8
:100DF0000E94831681E50E94BB15BC01990F880BE8
:100E0000990B0E94461C2AE038E240EA5BE30E940C
:100E1000FA1C6B017C0122E030E0BC01A60188E5F0
:100E200096E00E94AD1A43E060E080E396E00E9405
:100E3000AC1268ED74E080E396E00E94F11861E086
:100E4000809128020E94831661E0809122020E9414
:100E5000831660E0809126020E94831660E08091F4
:100E600024020E94831662E370E080E090E00E941A
:100E700018152DEC3CEC4CE45EE3C701B6010E9472
:100E8000AC1B87FFA2CF61E0809118020E948316FD
:100E900060E0809128020E94831660E08091220227
:100EA0000E94831660E0809126020E94831660E013
:100EB000809124020E94831664E670E080E090E056
:100EC0000E94181560E0809118020E94831668EF56
:100ED00074E088E596E0FF90EF90DF90CF900C945F
:100EE0000219CF92DF92EF92FF929EDD60E0809137
:100EF00028020E94831660E0809122020E948316DD
:100F000060E0809126020E94831660E080912402B6
:100F10000E94831680E50E94BB15BC01990F880BC7
:100F2000990B0E94461C2AE038E240EA5BE30E94EB
:100F3000FA1C6B017C0122E030E0BC01A60188E5CF
:100F400096E00E94AD1A43E060E080E396E00E94E4
:100F5000AC1262E075E080E396E00E94F11860E078
:100F6000809128020E94831660E0809122020E94F4
:100F7000831661E0809126020E94831661E08091D1
:100F800024020E94831662E370E080E090E00E94F9
:100F900018152DEC3CEC4CE45EE3C701B6010E9451
:100FA000AC1B87FFA2CF61E0809118020E948316DC
:100FB00060E0809128020E94831660E08091220206
:100FC0000E94831660E0809126020E94831660E0F2
:100FD000809124020E94831664E670E080E090E035
:100FE0000E94181560E0809118020E94831661E249
:100FF00075E088E596E0FF90EF90DF90CF900C943D
:1010000002190F931F93CF93DF930EDD00E212E0DE
:1010100061E0F80180810E948316CEE1D2E061E0B8
:1010200088810E94831643E060E080E396E00E949E
:10103000AC126AE275E080E396E00E94F11860EE7F
:101040007EE280E090E00E94181562E474E088E59A
:1010500096E00E94021960E0F80180810E948316E8
:1010600060E08881DF91CF911F910F910C948316DE
:101070000F931F93CF93DF93D7DC00E212E061E080
:10108000F80180810E948316CEE1D2E061E0888180
:101090000E94831643E060E080E396E00E94AC1279
:1010A0006AE275E080E396E00E94F11868EB7BE06D
:1010B00080E090E00E94181562E474E088E596E014
:1010C0000E94021960E0F80180810E94831660E0AE
:1010D0008881DF91CF911F910F910C94831681E34A
:1010E0000E94B01690931B0680931A062091180652
:1010F0003091190682179307A9F1892B99F58091F0
:10110000260690912706069769F581E080930506EB
:101110008091160690911706892B79F480911C0610
:1011200090911D06019690931D0680931C0667E41E
:1011300075E088E596E00E9402198091160690916C
:101140001706039779F4809114069091150601967D
:10115000909315068093140660E575E088E596E0A7
:101160000E94021980911A0690911B06909319060D
:1011700080931806089583E30E94B01690930906A1
:101180008093080620910606309107068217930780
:1011900009F43FC0892BE9F5809126069091270636
:1011A0000697B9F581E08093050680911606909127
:1011B0001706892B79F480911C0690911D060197E2
:1011C00090931D0680931C066AE575E088E596E01D
:1011D0000E9402198091160690911706039779F4E0
:1011E00080911406909115060197909315068093AF
:1011F000140664E675E088E596E00E9402196091A5
:101200002606709127064AE050E088E596E00E94A5
:10121000AC19809108069091090690930706809377
:10122000060608958F92AF92CF92EF920F9389E2C4
:10123000882E98E2A92E27E2C22E36E2E32E0BE199
:101240002AE14CE16DE180E396E00E948A1466E5B4
:1012500072E08AEF95E00F91EF90CF90AF908F9072
:101260000C94251B8AEF95E00C94BD1ACF92DF9267
:10127000EF92FF92CF93DF9332DF7DDF80910A06FA
:1012800090910B06019711F52ADF75DF8091050615
:101290008823E1F01092050642E063E080E396E0E7
:1012A0000E94AC1260911C0670911D064AE050E04D
:1012B00080E396E00E94A61960911C0670911D06BD
:1012C0004AE050E088E596E00E94AC1980910A0659
:1012D00090910B060297C1F402DF4DDF8091050665
:1012E000882391F01092050642E069E080E396E0E1
:1012F0000E94AC1260911C0670911D064AE050E0FD
:1013000080E396E00E94A61980910A0690910B0650
:101310000397C1F4E4DE2FDF80910506882391F066
:101320001092050642E060E180E396E00E94AC1274
:1013300060911C0670911D064AE050E080E396E043
:101340000E94A61980910A0690910B06049711F548
:10135000C6DE11DF809105068823E1F010920506B4
:1013600042E067E180E396E00E94AC1260911406CF
:10137000709115064AE050E080E396E00E94A619BD
:1013800060911406709115064AE050E088E596E0F9
:101390000E94AC1980910A0690910B060597C1F442
:1013A0009EDEE9DE80910506882391F01092050605
:1013B00042E062E280E396E00E94AC1260911C067B
:1013C00070911D064AE050E080E396E00E94A61965
:1013D00082E30E94B016909313068093120680E376
:1013E0000E94B01690930F0680930E06809112060D
:1013F00090911306209110063091110682179307E1
:1014000009F444C00197B9F58091F2059091F30574
:10141000079789F56091160670911706643071057B
:1014200009F42ACF6F5F7F4F7093170660931606FB
:101430004AE050E088E596E00E94AC1962E370E073
:1014400080E090E00E941815809116069091170692
:101450000497039758F46FE675E088E596E00E94DC
:101460000219809116069091170601DA80911606EE
:1014700090911706FCD962E370E080E090E00E9452
:10148000181582E30E94B0160197D9F380910E06D9
:1014900090910F0620910C0630910D06821793074C
:1014A00009F440C0019741F58091F2059091F30550
:1014B000079711F560911606709117066115710571
:1014C00009F4DACE6150710970931706609316061D
:1014D0004AE050E088E596E00E94AC19809116063B
:1014E00090911706843091050CF0C1D962E370E049
:1014F00080E090E00E9418158091160690911706E2
:101500009C01215031092330310508F4B0D962E340
:1015100070E080E090E00E9418158091160690918E
:101520001706A5D980910C020E94B016909325064B
:101530008093240680910A020E94B016909321069F
:1015400080932006809110020E94B01690930406AA
:101550008093030680910E020E94B01690930206BB
:10156000809301068091030690910406019749F447
:10157000809126069091270604D810922B0610928F
:101580002A06809110020E94B0160197D1F3809133
:10159000260690912706049744F5809101069091C4
:1015A00002060197E1F488E090E00E94C1024091B8
:1015B000260660E080E396E0CFD780E396E0BFD7D1
:1015C00064EF71E080E090E00E94181580E396E0FF
:1015D000BCD764EF71E080E090E00E941815809124
:1015E0000E020E94B0160197D1F3809126069091C9
:1015F00027060497039708F068C080910106909130
:101600000206019709F05BC087E090E00E94C102EA
:10161000109227061092260680E396E0D7D740E086
:1016200060E080E396E098D767E772E080E396E0B9
:101630000E94F11841E060E080E396E08DD76AE90E
:1016400072E080E396E00E94F11842E060E080E3FF
:1016500096E082D764EB72E080E396E00E94F11896
:1016600043E060E080E396E077D769EC72E080E3E6
:1016700096E00E94F11840E060E080E396E06CD7CD
:1016800080E396E05CD71092150610921406109233
:101690001D0610921C0664EF71E080E090E00E944D
:1016A000181580E396E051D764EF71E080E090E098
:1016B0000E9418151092F3051092F205DDCD80916D
:1016C0000E020E94B0160197D1F3C0912406D0916A
:1016D00025068091220690912306C817D90709F4A0
:1016E0004AC0C130D105D9F58091F2059091F3053A
:1016F0000797ACF560912606709127066730710553
:1017000009F4BACD6F5F7F4F70932706609326066A
:101710004AE050E088E596E00E94AC1962E370E090
:1017200080E090E00E94181580912606909127068F
:101730000497039770F464E775E088E596E00E94EB
:10174000021987E090E00E94C102D093F905C0938E
:10175000F80580912606909127060E94630262E3B5
:1017600070E080E090E00E94181580910C020E94C9
:10177000B0160197D1F38091200690912106209117
:101780001E0630911F068217930709F43FC060912F
:10179000260670912706019711F58091F205909128
:1017A000F3050797E4F46F3F760709F465CD6150C0
:1017B000710970932706609326064AE050E088E599
:1017C00096E00E94AC198091260690912706049716
:1017D00034F062E370E080E090E00E9418158091A0
:1017E0002606909127060197039720F488E090E061
:1017F0000E94C10262E370E080E090E00E94181550
:1018000080912606909127060E94630210922B0673
:1018100010922A06809128069091290690932D0611
:1018200080932C0680910A020E94B0160197D1F392
:101830008CE20E94B01621E0009709F420E020938A
:101840000006892B09F478C08091F2059091F30588
:101850008130910509F06DC4E7D8D3DBAFD964EFCF
:1018600071E080E090E00E9418153BDB64EF71E0CE
:1018700080E090E00E94181531DA68E873E180E0BA
:1018800090E00E9418159AD964EF71E080E090E032
:101890000E94181596DA64EF71E080E090E00E94F3
:1018A0001815FCD880E396E091D640E060E080E334
:1018B00096E052D667E772E080E396E00E94F11866
:1018C00041E060E080E396E047D66AE972E080E3B9
:1018D00096E00E94F11842E060E080E396E03CD69A
:1018E00064EB72E080E396E00E94F11843E060E070
:1018F00080E396E031D669EC72E080E396E00E94E6
:10190000F11840E060E080E396E026D680E396E0C0
:1019100016D6109227061092260664EF71E080E03A
:1019200090E00E94181580E396E00FD664EF71E016
:1019300080E090E00E94181588E596E00E94D81695
:10194000181619060CF05EC588E596E00E94F2169E
:1019500090932F0680932E068134910509F07AC06A
:1019600060E0809130020E94831660E080912A023C
:101970000E94831660E080912E020E94831660E030
:1019800080912C020E9483168AE00E94BB15BC0144
:10199000990F880B990B0E94461C2AE038E240EA16
:1019A0005BE30E94FA1C6B017C0122E030E0BC0189
:1019B000A60188E596E00E94AD1A61E080913002B0
:1019C0000E94831661E080912A020E94831660E0E3
:1019D00080912E020E94831660E080912C020E946A
:1019E000831664EF71E080E090E00E9418152DEC02
:1019F0003CEC4CE45EE3C701B6010E94AC1B87FFE0
:101A0000AFCF61E080911C020E94831660E080915C
:101A100030020E94831660E080912A020E948316A1
:101A200060E080912E020E94831660E080912C027B
:101A30000E94831668EC70E080E090E0F9D760E0E7
:101A400080911C020E94831662E874E088E596E0AB
:101A50000E94021980912E0690912F0682349105E2
:101A600009F079C060E0809130020E94831660E046
:101A700080912A020E94831660E080912E020E94CB
:101A8000831660E080912C020E9483168EE40E94EF
:101A9000BB15BC01990F880B990B0E94461C2AE0CC
:101AA00038E240EA5BE30E94FA1C6B017C0122E011
:101AB00030E0BC01A60188E596E00E94AD1A60E026
:101AC000809130020E94831660E080912A020E9479
:101AD000831661E080912E020E94831661E080915E
:101AE0002C020E94831664EF71E080E090E0A0D7A2
:101AF0002DEC3CEC4CE45EE3C701B6010E94AC1B4C
:101B000087FFB0CF61E080911A020E94831660E0E7
:101B1000809130020E94831660E080912A020E9428
:101B2000831660E080912E020E94831660E080910F
:101B30002C020E94831668EC70E080E090E078D779
:101B400060E080911A020E94831669EA74E088E5D9
:101B500096E00E94021980912E0690912F06833400
:101B6000910509F078C060E0809130020E948316F0
:101B700060E080912A020E94831660E080912E022C
:101B80000E94831660E080912C020E9483168DE4EF
:101B9000F2D7BC01990F880B990B0E94461C2AE0D2
:101BA00038E240EA5BE30E94FA1C6B017C0122E010
:101BB00030E0BC01A60188E596E00E94AD1A60E025
:101BC000809130020E94831660E080912A020E9478
:101BD000831661E080912E020E94831661E080915D
:101BE0002C020E94831664EF71E080E090E020D721
:101BF0002DEC3CEC4CE45EE3C701B6010E94AC1B4B
:101C000087FFB1CF61E0809118020E94831660E0E7
:101C1000809130020E94831660E080912A020E9427
:101C2000831660E080912E020E94831660E080910E
:101C30002C020E94831668EC70E080E090E0F8D6F9
:101C400060E0809118020E94831660EB74E088E5E2
:101C500096E00E94021980912E0690912F068434FE
:101C6000910509F072C060E0809130020E948316F5
:101C700060E080912A020E94831660E080912E022B
:101C80000E94831660E080912C020E9483168EE4ED
:101C900072D7BC01990F880B990B0E94461C2AE051
:101CA00038E240EA5BE30E94FA1C6B017C0122E00F
:101CB00030E0BC01A60188E596E00E94AD1A61E023
:101CC000809130020E94831661E080912A020E9476
:101CD000831660E080912E020E94831660E080915E
:101CE0002C020E94831664EF71E080E090E0A0D6A1
:101CF0002DEC3CEC4CE45EE3C701B6010E94AC1B4A
:101D000087FFB1CF61E080911802FDD760E080913C
:101D10003002F9D760E080912A02F5D760E0809127
:101D20002E02F1D760E080912C02EDD768EC70E0D4
:101D300080E090E07DD660E080911802E4D760EB0F
:101D400074E088E596E00E94021980912E06909139
:101D50002F068534910509F08FC060E0809128023C
:101D6000D2D760E080912202CED760E08091260237
:101D7000CAD760E080912402C6D781E5FCD6BC01B9
:101D8000990F880B990B0E94461C2AE038E240EA22
:101D90005BE30E94FA1C6B017C0122E030E0BC0195
:101DA000A60188E596E00E94AD1A61E080912802C4
:101DB000AAD761E080912202A6D760E08091260236
:101DC000A2D760E0809124029ED764E670E080E0B4
:101DD00090E02ED62DEC3CEC4CEC5DE3C701B60157
:101DE0000E94AC1B87FFB9CF61E0809118028BD7AE
:101DF00060E08091280287D760E08091220283D73B
:101E000060E0809126027FD760E0809124027BD73A
:101E100064E670E080E090E00BD660E080912802FC
:101E200072D760E0809122026ED761E08091260235
:101E30006AD761E08091240266D76AE070E080E0B2
:101E400090E0F6D560E0809128025DD760E0809157
:101E5000220259D760E08091260255D760E0809138
:101E6000240251D760E0809118024DD769E775E0F0
:101E700088E596E00E94021980912E0690912F0627
:101E80008634910509F08FC060E0809128023BD72D
:101E900060E08091220237D760E08091260233D73C
:101EA00060E0809124022FD780E565D6BC01990FB0
:101EB000880B990B0E94461C2AE038E240EA5BE35B
:101EC0000E94FA1C6B017C0122E030E0BC01A601FB
:101ED00088E596E00E94AD1A60E08091280213D751
:101EE00060E0809122020FD761E0809126020BD73B
:101EF00061E08091240207D764E670E080E090E022
:101F000097D52DEC3CEC4CEC5DE3C701B6010E948B
:101F1000AC1B87FFB9CF61E080911802F4D660E076
:101F200080912802F0D660E080912202ECD660E039
:101F300080912602E8D660E080912402E4D664E62F
:101F400070E080E090E074D561E080912802DBD6FB
:101F500061E080912202D7D660E080912602D3D63C
:101F600060E080912402CFD662E370E080E090E0F0
:101F70005FD560E080912802C6D660E080912202A1
:101F8000C2D660E080912602BED660E08091240235
:101F9000BAD660E080911802B6D662E875E088E5AE
:101FA00096E00E94021980912E0690912F068236AB
:101FB000910581F560E080913002A5D660E08091C6
:101FC0002A02A1D661E080912E029DD661E0809127
:101FD0002C0299D668E873E180E090E029D56CE89E
:101FE00075E088E596E00E94021960E08091300279
:101FF0008AD660E080912A0286D660E080912E0227
:1020000082D660E080912C027ED668EE73E080E09C
:1020100090E00ED580912E0690912F068336910583
:1020200099F461E080911E026ED668EB7BE080E05F
:1020300090E0FED462E474E088E596E00E94021924
:1020400060E080911E025FD680912E0690912F064F
:102050008436910581F561E08091280254D661E0D3
:102060008091220250D660E0809126024CD660E03A
:102070008091240248D668E873E180E090E0D8D4EB
:102080006AEA75E088E596E00E94021960E08091B6
:10209000280239D660E08091220235D660E0809136
:1020A000260231D660E0809124022DD668EE73E0DE
:1020B00080E090E0BDD480912E0690912F06853669
:1020C000910509F09FC160E0809128021CD660E074
:1020D0008091220218D661E08091260214D661E038
:1020E0008091240210D668E873E180E090E0A0D4EB
:1020F0006AEA75E088E596E00E94021960E0809146
:10210000280201D660E080912202FDD560E0809136
:102110002602F9D560E080912402F5D568EE73E0DF
:1021200080E090E0DF91CF91FF90EF90DF90CF9033
:102130007FC49C01225031092430310518F40E94DB
:1021400038088CCB8630910509F073C00E9438089E
:102150000E94DE0564EF71E080E090E069D40E94A7
:10216000710764EF71E080E090E062D40E946E0637
:1021700068E873E180E090E05BD40E94DE0564EFE4
:1021800071E080E090E054D40E94E10664EF71E0D9
:1021900080E090E04DD40E944E0580E396E016D298
:1021A00040E060E080E396E0D7D167E772E080E34B
:1021B00096E00E94F11841E060E080E396E0CCD127
:1021C0006AE972E080E396E00E94F11842E060E084
:1021D00080E396E0C1D164EB72E080E396E00E9478
:1021E000F11843E060E080E396E0B6D169EC72E07C
:1021F00080E396E0F6D740E060E080E396E0ACD183
:1022000080E396E09CD1109227061092260664EF98
:1022100071E080E090E00CD480E396E096D164EF2A
:1022200071E080E090E004D41092F3051092F20582
:1022300083CB079709F080CB61E08091200263D5C2
:1022400061E080911E025FD543E060E080E396E0AC
:1022500083D16AE275E080E396E0C3D7C0911C06A3
:10226000D0911D064AE050E0BE0188E596E00E944C
:10227000AC1920910602309107024091080250915A
:102280000902DE010E948B1DAB01BC014093F405E5
:102290005093F5056093F6057093F7052AE030E05A
:1022A00088E596E00E94BC196091F4057091F505EF
:1022B0008091F6059091F705BBD362E474E088E560
:1022C00096E0A0D760E0809120021DD560E080916B
:1022D0001E0219D50E94DE0564EF71E080E090E0F7
:1022E000A7D30E94710764EF71E080E090E0A0D373
:1022F0000E946E06A0911406B09115062091060268
:102300003091070240910802509109020E948B1DF2
:10231000AB01BC014093F4055093F5056093F605BD
:102320007093F7052AE030E088E596E00E94BC193A
:102330006091F4057091F5058091F6059091F7058F
:1023400077D30E94DE0564EF71E080E090E070D307
:102350000E94E10664EF71E080E090E069D30E94A2
:102360004E0580E396E032D140E060E080E396E005
:10237000F3D067E772E080E396E033D741E060E0B6
:1023800080E396E0E9D06AE972E080E396E029D73D
:1023900042E060E080E396E0DFD064EB72E080E34F
:1023A00096E01FD743E060E080E396E0D5D069EC8B
:1023B00072E080E396E015D740E060E080E396E0CD
:1023C000CBD080E396E0BBD0109227061092260671
:1023D00064EF71E080E090E02BD380E396E0B5D02D
:1023E00064EF71E080E090E023D31092F305109247
:1023F000F205109215061092140610921D06109206
:102400001C069ACADF91CF91FF90EF90DF90CF909A
:102410000895FC0121852F3F39F486819781892B0E
:1024200019F484E59BE03AC30895EF92FF920F936D
:102430001F93CF93DF93EC01162FF42E0A858B8523
:102440008F3F19F09C859111082F89858F3F09F0E6
:1024500040C0EE81FF81309709F437C08C85199513
:102460006F2D888550D4612F60718B894CD4612F7A
:1024700060728C8948D4612F60748D8944D4612F37
:1024800060788E8940D461E0802F3DD460E0802F59
:102490003AD4612F61708B8936D4612F62708C8938
:1024A00032D4612F64708D892ED4612F68708E892B
:1024B0002AD461E0802F27D460E0802FDF91CF9174
:1024C0001F910F91FF90EF901EC480E491E0E6D23F
:1024D000C7CF60E08B89DBD360E08C89D8D360E024
:1024E0008D89D5D360E08E89D2D361E089850BD404
:1024F00060E0888508D461E0802F05D48E8930D4CF
:10250000E82E60E0802FFFD361E0802FFCD360E0F5
:10251000802FF9D381E0E81671F361E08B89B7D39E
:1025200061E08C89B4D361E08D89B1D361E08E899B
:10253000AED360E08985E7D393CF40E076CFFC014E
:10254000658D6D7F658F6860F8CFFC01658D262FE6
:102550002260258F6A60F1CF0F931F93CF93DF9393
:102560008C01FC01808D841710F44FEF480FF801A7
:1025700047876687108AE40FF11D818DC82FC074CC
:10258000F8019585690F8F73680F6832DCF0685227
:10259000C62BD42FD270F8018485D81759F0658DD9
:1025A000647F6860C801C9DFF801D487658D686001
:1025B000C801C3DF6C2F6068C801DF91CF911F9104
:1025C0000F91BBCF67FFE4CF685DE2CFCF93DF937E
:1025D000EC018B858F3F99F082E08C8761E0CE0122
:1025E000ACDF1C8661E0CE01A8DFCE0112DF40E047
:1025F00060E0CE01B1DF1D86DF91CF91089561E0EB
:10260000CE019BDFCE0105DFF6CF0F931F93CF9353
:10261000DF93FC0123852F3F31F440E0DF91CF9120
:102620001F910F9102CF162FEC010485148640E014
:10263000FCDE82E08C8740E0612FCE01F6DE0C8765
:10264000DF91CF911F910F910895CF93DF93EC010C
:102650006D8D862F84608D8F647F6C60CE01D5DF99
:102660006D8D6860CE01DF91CF9167CF1F93CF93BF
:10267000DF93EC01162F8D85811103C08889882393
:1026800021F04F856E85CE0167DF1D3031F01A30A5
:1026900021F041E0612FCE01C8DE188A8E8599892C
:1026A0002F85911121C08F5F8E871D3041F0082E3C
:1026B000000C990B3F893817190609F02CF41E8677
:1026C0002F5F2F8781E0888B8F85082E000C990B58
:1026D000288D2817190609F00CF41F8681E090E078
:1026E000DF91CF911F91089581508E871A3011F09C
:1026F00087FFEACF8F8981508E87E2CF0F931F9398
:10270000CF93DF938C01C62F6170FC018389FBD2CC
:10271000D0E0BE01759567956170F8018489F3D2A8
:10272000BE0175956795759567956170F801858906
:10273000EAD223E0D595C7952A95E1F76C2F617011
:10274000F8018689E0D2F801C28583858F3F19F0B0
:1027500094859111C82F61E08C2FD5D260E08C2F29
:10276000DF91CF911F910F91CEC2FF920F931F93D4
:10277000CF93DF93EC0118E0423008F410E02223FD
:1027800019F0413009F4146082E1F82E8CE49DE1E7
:1027900085D1FA94F110FACF60E08885B4D260E078
:1027A000802FB1D260E08885AED263E0CE01A6DF93
:1027B00088E893E173D163E0CE01A0DF86E990E081
:1027C0006DD163E0CE019ADF86E990E067D162E0E7
:1027D000CE0194DF86E990E061D1612F6062CE0185
:1027E000ACDE84E08D8FCE0130DFCE01EFDE82E003
:1027F0008E8F66E0CE01DF91CF911F910F91FF90F8
:102800009CCEEF92FF920F931F93CF93DF93EC0137
:10281000162FF42EE22E6F8B6D83488F4C83898D9B
:10282000860F8B8F8A8D860F8C8F0A85CE019DDF58
:102830000B850F3F51F01B8E80E48C8F82E08C87DC
:102840002E2D4F2D612FCE0190DFDF91CF911F9163
:102850000F91FF90EF9008956F927F928F92AF92B9
:10286000CF92EF920F931F93CF93DF93CDB7DEB745
:102870003C01142F8E2DF30160879FEF9187178203
:102880001682228703871486158616861786108A75
:10289000118AE38AC48AA58A868A61E0F8D161E058
:1028A0008C2DF5D161E08A2DF2D161E0882DEFD138
:1028B000F301118E80E4828F84E1838F84E5848F1D
:1028C00061E08085E4D11F3F31F061E0812FDFD1ED
:1028D00060E0812F18D261E0F3018285D8D10F3FEB
:1028E00019F061E0802FD3D120E041E064E1C30121
:1028F00088DF8E859F85F301978386831187DF911B
:10290000CF911F910F91EF90CF90AF908F907F90CC
:102910006F9008958F92AF92CF92EF920F93CF93D3
:10292000DF93CDB7DEB7DC0113961C921E9212978F
:10293000ECECF5E0ED93FC931F921F928DDF0F906E
:102940000F90DF91CF910F91EF90CF90AF908F903C
:1029500008951F920F920FB60F9211242F933F9359
:102960008F939F93AF93BF938091500690915106A0
:10297000A0915206B091530630914F0623E0230FE9
:102980002D3758F50196A11DB11D20934F06809358
:10299000500690935106A0935206B093530680912F
:1029A000540690915506A0915606B091570601968F
:1029B000A11DB11D8093540690935506A093560611
:1029C000B0935706BF91AF919F918F913F912F91F7
:1029D0000F900FBE0F901F90189526E8230F0296B8
:1029E000A11DB11DD2CF3FB7F894809154069091AC
:1029F0005506A0915606B091570626B5A89B05C06E
:102A00002F3F19F00196A11DB11D3FBFBA2FA92F6D
:102A1000982F8827BC01CD01620F711D811D911D6A
:102A200042E0660F771F881F991F4A95D1F70895D6
:102A30008F929F92AF92BF92CF92DF92EF92FF92CE
:102A40006B017C01D0DF4B015C01C114D104E104B6
:102A5000F104D9F01BD6C7DF681979098A099B09E7
:102A6000683E73408105910580F321E0C21AD108C8
:102A7000E108F10888EE880E83E0981EA11CB11CC5
:102A8000C114D104E104F10431F7FF90EF90DF901D
:102A9000CF90BF90AF909F908F9008958230910516
:102AA00038F0880F991F880F991F05970197F1F744
:102AB0000895789484B5826084BD84B5816084BDB6
:102AC00085B5826085BD85B5816085BDEEE6F0E0A7
:102AD000808181608083E1E8F0E010828081826003
:102AE0008083808181608083E0E8F0E08081816084
:102AF0008083E1EBF0E0808184608083E0EBF0E0B4
:102B0000808181608083E1E9F0E080818260808360
:102B1000808181608083E0E9F0E080818160808352
:102B2000E1EAF0E08081826080838081816080833F
:102B3000E0EAF0E0808181608083E1E2F1E0808181
:102B400082608083808181608083E0E2F1E0808127
:102B500081608083EAE7F0E0808184608083808107
:102B600082608083808181608083808180688083AF
:102B70001092C1000895803120F0843408F484E478
:102B8000855420917B00982F9870277F922B9093EB
:102B90007B002091320290E4299F900111248770DC
:102BA000822B80937C0080917A00806480937A00ED
:102BB00080917A0086FDFCCF809178009091790019
:102BC00008958250823108F059C0E82FF0E088273C
:102BD000E451FA4E8F4F97C70C161016FE150416C7
:102BE00008163E16131619161D16231627162B1631
:102BF000311635163E1639163F1643168091800061
:102C00008F77809380000895809180008F7DF9CF29
:102C100080918000877FF5CF84B58F7784BD08953C
:102C200084B58F7DFBCF8091B0008F778093B0000B
:102C300008958091B0008F7DF9CF809190008F77BB
:102C4000809390000895809190008F7DF9CF8091BE
:102C50009000877FF5CF8091A0008F778093A000B0
:102C600008958091A0008F7DF9CF8091A000877F8B
:102C7000F5CF809120018F77809320010895809176
:102C800020018F7DF9CF80912001877FF5CFCF93F1
:102C9000DF9390E0FC01E65CFE4F249180579E4F4D
:102CA000FC0184918823C9F090E0880F991FFC01F2
:102CB000E65EFD4FA591B491FC01E050FE4FC59139
:102CC000D49161110DC09FB7F8948C912095822307
:102CD0008C938881282328839FBFDF91CF9108950B
:102CE000623051F49FB7F8943C91822F80958323F2
:102CF0008C93E8812E2BEFCF8FB7F894EC912E2B8D
:102D00002C938FBFEACF1F93CF93DF93282F30E010
:102D1000F901EC51FF4F8491F901E65CFE4FD4912B
:102D2000F901E057FE4FC491CC23A1F0162F811179
:102D300048DFEC2FF0E0EE0FFF1FE050FE4FA591B3
:102D4000B4918FB7F894EC91111108C0D095DE239F
:102D5000DC938FBFDF91CF911F910895DE2BF8CFC9
:102D6000CF93DF93282F30E0F901EC51FF4F84918E
:102D7000F901E65CFE4FD491F901E057FE4FC49192
:102D8000CC2399F081111DDFEC2FF0E0EE0FFF1F37
:102D9000EA51FE4FA591B491EC91ED2381E090E0D2
:102DA00009F480E0DF91CF91089580E090E0FACFC0
:102DB000FC01918D228D892F90E0805C9F4F821BBA
:102DC00091098F7399270895FC01918D828D981731
:102DD00031F0828DE80FF11D858D90E008958FEF21
:102DE0009FEF0895FC01918D828D981761F0A28D5F
:102DF000AE0FBF2FB11D5D968C91928D9F5F9F731B
:102E0000928F90E008958FEF9FEF08958FE798E1FC
:102E1000892B41F080E090E0892B21F070D1811165
:102E20000E94000080E090E0892B49F080E090E073
:102E3000892B29F00E94000081110E94000080E08F
:102E400090E0892B49F080E090E0892B29F00E94E6
:102E5000000081110E94000080E090E0892B49F081
:102E600080E090E0892B29F00E94000081110C94F1
:102E700000000895FC01A48DA80FB92FB11DA35A1D
:102E8000BF4F2C91848D90E001968F739927848F8A
:102E9000A689B7892C93A089B1898C9180648C9381
:102EA000938D848D981306C00288F389E02D80816C
:102EB0008F7D80830895CF93DF93EC01888D8823E5
:102EC000B1F0AA89BB89E889F9898C9185FD03C095
:102ED000808186FD0CC00FB607FCF7CF8C9185FF73
:102EE000F2CF808185FFEDCFCE01C4DFEACFDF9145
:102EF000CF910895EF92FF920F931F93CF93DF939B
:102F0000EC0181E0888F9B8D8C8D981316C0E88929
:102F1000F989808185FF11C0EE89FF896083E88986
:102F2000F98980818064808381E090E0DF91CF9196
:102F30001F910F91FF90EF900895F62E0B8D10E0EA
:102F40000F5F1F4F0F731127E02E8C8D8E110BC05A
:102F50000FB607FCFACFE889F989808185FFF5CFA4
:102F6000CE0188DFF2CFEB8DEC0FFD2FF11DE35A80
:102F7000FF4FF0820B8FEA89FB8980818062D3CF7B
:102F8000CF92DF92EF92FF921F93CF93DF93EC01EA
:102F90006A017B01122FE889F98982E08083C114DC
:102FA00081EED806E104F10499F060E079E08DE368
:102FB00090E0A701960185D52150310941095109B9
:102FC0005695479537952795211580E1380790F05C
:102FD000E889F989108260E874E88EE190E0A70141
:102FE00096016FD5215031094109510956954795F0
:102FF00037952795EC85FD853083EE85FF85208309
:10300000188EEC89FD891083EA89FB8980818061B3
:103010008083EA89FB89808188608083EA89FB89D3
:10302000808180688083EA89FB8980818F7D8083AD
:10303000DF91CF911F91FF90EF90DF90CF90089597
:103040001F920F920FB60F9211240BB60F922F936F
:103050008F939F93EF93FF93E0916806F091690639
:103060008081E0916E06F0916F0682FD1DC0908117
:10307000809171068F5F8F7320917206821741F0E5
:10308000E0917106F0E0E85AF94F958F8093710650
:10309000FF91EF919F918F912F910F900BBE0F9009
:1030A0000FBE0F901F9018958081F2CF1F920F9244
:1030B0000FB60F9211240BB60F922F933F934F939D
:1030C0005F936F937F938F939F93AF93BF93EF9390
:1030D000FF9388E596E0CEDEFF91EF91BF91AF912F
:1030E0009F918F917F916F915F914F913F912F9120
:1030F0000F900BBE0F900FBE0F901F90189588E594
:1031000096E056DE21E0892B09F420E0822F089515
:10311000E8E5F6E01382128288EE93E0A0E0B0E0EA
:1031200084839583A683B78384ED95E09183808320
:1031300085EC90E09587848784EC90E0978786877C
:1031400080EC90E0918B808B81EC90E0938B828B74
:1031500082EC90E0958B848B86EC90E0978B868B4D
:10316000118E128E138E148E0895AF92BF92CF924D
:10317000DF92EF92FF920F931F93CF93DF936C0137
:103180007B018B01040F151FEB015E01AE18BF0818
:10319000C017D10759F06991D601ED91FC910190CA
:1031A000F081E02DC6011995892B79F7C501DF91D2
:1031B000CF911F910F91FF90EF90DF90CF90BF9034
:1031C000AF900895FB0101900020E9F73197AF011E
:1031D000461B570BDC01ED91FC910280F381E02D41
:1031E00019946115710509F0EDCF90E080E0089524
:1031F000DC01ED91FC910190F081E02D199460EEDD
:1032000075E0E0CF0F931F93CF93DF938C01D0E055
:10321000C0E06115710511F0D5DFEC01C801EFDFE9
:103220008C0F9D1FDF91CF911F910F9108958F9269
:103230009F92AF92BF92EF92FF920F931F93CF9303
:10324000DF93CDB7DEB7A1970FB6F894DEBF0FBE00
:10325000CDBF7C01FA01CB0119A2223008F42AE08B
:103260008E010F5D1F4F822E912CB12CA12CBF011E
:10327000A501940126D4F901CA016A3004F5605D04
:10328000D8016E938D01232B242B252B81F790E001
:1032900080E0109719F0BD01C70194DFA1960FB629
:1032A000F894DEBF0FBECDBFDF91CF911F910F917C
:1032B000FF90EF90BF90AF909F908F900895695CC2
:1032C000DFCFCF92DF92EF92FF920F931F93CF93B6
:1032D000DF932115310581F4DC01ED91FC91019022
:1032E000F081E02D642FDF91CF911F910F91FF901E
:1032F000EF90DF90CF9019942A303105F1F42AE055
:1033000077FF1BC06A017B01EC016DE271DF8C016C
:1033100044275527BA014C195D096E097F092AE037
:10332000CE0185DF800F911FDF91CF911F910F910B
:10333000FF90EF90DF90CF900895DF91CF911F9194
:103340000F91FF90EF90DF90CF9071CF9A01AB017A
:10335000770F660B770BB5CF0F931F93CF93DF9348
:10336000EC01F4DF8C01CE014ADF800F911FDF9169
:10337000CF911F910F9108950F931F93CF93DF93D8
:10338000EC019FDF8C01CE013ADF800F911FDF91AE
:10339000CF911F910F9108952115310541F4DC0162
:1033A000ED91FC910190F081E02D642F19943FCFB5
:1033B0009A01AB0170E060E0EFCF2F923F924F9205
:1033C0005F926F927F928F929F92AF92BF92CF92B5
:1033D000DF92EF92FF921F93CF93DF93EC016A018C
:1033E0007B01722EAB019601CB01B60166D363EE71
:1033F00075E0811123C046015701E894B7F82FEF1B
:103400003FEF4FE75FE7C501B40157D381110BC010
:103410002FEF3FEF4FE75FE7C501B4019DD167EEA6
:1034200075E018165CF02FEF3FEF4FE75FE4C70140
:10343000B601DCD21816ACF46BEE75E0CE01DF916C
:10344000CF911F91FF90EF90DF90CF90BF90AF9002
:103450009F908F907F906F905F904F903F902F90B4
:10346000B1CE2FEF3FEF4FE75FECC701B60174D14C
:1034700087FDE2CF20E030E0A901C701B6016CD1A1
:10348000312C212C87FF08C06DE2CE01B1DE1C017A
:10349000F7FAF094F7F8F09410E060E070E080E064
:1034A0009FE3711639F020E030E040E251E458D15A
:1034B0001F5FF7CFA7019601EBD02B013C01B8D1DC
:1034C0004B015C012AE0BC01A401CE01B0DE7C010D
:1034D000E20CF31C112371F1C501B401D5D19B019C
:1034E000AC01C301B201D3D04B015C016EE2CE014D
:1034F0007FDEE80EF91E1150E8F020E030E040E2F7
:1035000051E4C501B40176D22B013C0191D14B01AC
:103510004AE050E0CE014CDFE80EF91EB40190E025
:1035200080E0B2D19B01AC01C301B201B0D04B012C
:103530005C01E1CFC701DF91CF911F91FF90EF9028
:10354000DF90CF90BF90AF909F908F907F906F90C3
:103550005F904F903F902F9008950F931F93CF93BC
:10356000DF93EC012ADF8C01CE0149DE800F911F31
:10357000DF91CF911F910F910895FC01808191817E
:1035800085C3CF93DF93EC0188819981009709F07F
:103590007DD3198218821D821C821B821A82DF91C0
:1035A000CF9108950F931F93CF93DF93EC018B017D
:1035B0006F5F7F4F88819981F2D3009751F0998393
:1035C00088831B830A8381E0DF91CF911F910F9144
:1035D000089580E0F9CFCF93DF93EC018881998142
:1035E000892B49F08A819B818617970720F081E01B
:1035F000DF91CF910895CE01D5DF8823C9F38C8167
:103600009D81892BA1F7E881F9811082F0CFEF929B
:10361000FF920F931F93CF93DF93EC017B018A01FD
:10362000BA01D9DF81110AC0CE01ABDFCE01DF9133
:10363000CF911F910F91FF90EF9008951D830C8300
:10364000B7018881998190D4F1CFFC011182108259
:1036500013821282158214826115710549F0FB01F3
:1036600001900020E9F73197AF01461B570BCFCFF0
:10367000089508951EDAFDDF0E944F01C6E0D7E1EC
:103680000E9436092097E1F3C1DBFACF0895505824
:10369000BB27AA270ED070C161D130F066D120F0CF
:1036A00031F49F3F11F41EF456C10EF4E095E7FB90
:1036B0004CC1E92F72D180F3BA17620773078407F0
:1036C000950718F071F49EF58AC10EF4E0950B2E63
:1036D000BA2FA02D0B01B90190010C01CA01A00164
:1036E0001124FF27591B99F0593F50F4503E68F1BF
:1036F0001A16F040A22F232F342F4427585FF3CF00
:10370000469537952795A795F0405395C9F77EF4D0
:103710001F16BA0B620B730B840BBAF09150A1F019
:10372000FF0FBB1F661F771F881FC2F70EC0BA0F9F
:10373000621F731F841F48F4879577956795B79527
:10374000F7959E3F08F0B3CF9395880F08F099271F
:10375000EE0F979587950895D4D008F481E00895E9
:103760000CD00AC102D140F0F9D030F021F45F3F13
:1037700019F0EBC0511134C1EEC00FD198F3992369
:10378000C9F35523B1F3951B550BBB27AA27621725
:103790007307840738F09F5F5F4F220F331F441F6A
:1037A000AA1FA9F333D00E2E3AF0E0E830D09150A2
:1037B0005040E695001CCAF729D0FE2F27D0660F8F
:1037C000771F881FBB1F261737074807AB07B0E8CE
:1037D00009F0BB0B802DBF01FF2793585F4F2AF0E4
:1037E0009E3F510568F0B1C0FBC05F3FECF3983ECF
:1037F000DCF3869577956795B795F7959F5FC9F741
:10380000880F911D9695879597F90895E1E0660FC9
:10381000771F881FBB1F621773078407BA0720F042
:10382000621B730B840BBA0BEE1F88F7E0950895AB
:10383000BCD088F09F5790F0B92F9927B751A0F0CE
:10384000D1F0660F771F881F991F1AF0BA95C9F734
:1038500012C0B13081F0C3D0B1E00895C0C0672F6D
:10386000782F8827B85F39F0B93FCCF386957795E4
:103870006795B395D9F73EF49095809570956195CD
:103880007F4F8F4F9F4F0895E89409C097FB3EF4F8
:1038900090958095709561957F4F8F4F9F4F99239D
:1038A000A9F0F92F96E9BB279395F695879577951B
:1038B0006795B795F111F8CFFAF4BB0F11F460FFDB
:1038C0001BC06F5F7F4F8F4F9F4F16C0882311F033
:1038D00096E911C0772321F09EE8872F762F05C047
:1038E000662371F096E8862F70E060E02AF09A95E2
:1038F000660F771F881FDAF7880F9695879597F9D7
:103900000895990F0008550FAA0BE0E8FEEF161670
:103910001706E807F907C0F012161306E407F507C3
:1039200098F0621B730B840B950B39F40A2661F037
:10393000232B242B252B21F408950A2609F4A140DA
:10394000A6958FEF811D811D089597F99F6780E8E7
:1039500070E060E008959FEF80EC089500240A94E1
:103960001616170618060906089500240A9412165A
:103970001306140605060895092E0394000C11F48D
:10398000882352F0BB0F40F4BF2B11F460FF04C03A
:103990006F5F7F4F8F4F9F4F089557FD9058440F93
:1039A000551F59F05F3F71F04795880F97FB991F9E
:1039B00061F09F3F79F0879508951216130614065B
:1039C000551FF2CF4695F1DF08C0161617061806E8
:1039D000991FF1CF86957105610508940895E894C3
:1039E000BB2766277727CB0197F908958ADF08F46C
:1039F0008FEF08950BD0C0CFB1DF28F0B6DF18F0FD
:103A0000952309F0A2CFA7CF1124EACFC6DFA0F3F8
:103A1000959FD1F3950F50E0551F629FF001729F63
:103A2000BB27F00DB11D639FAA27F00DB11DAA1F82
:103A3000649F6627B00DA11D661F829F2227B00DCF
:103A4000A11D621F739FB00DA11D621F839FA00D5A
:103A5000611D221F749F3327A00D611D231F849FAA
:103A6000600D211D822F762F6A2F11249F57504001
:103A70008AF0E1F088234AF0EE0FFF1FBB1F661F9C
:103A8000771F881F91505040A9F79E3F510570F055
:103A90005CCFA6CF5F3FECF3983EDCF3869577953D
:103AA0006795B795F795E7959F5FC1F7FE2B880F50
:103AB000911D9695879597F9089523DF880B990BAB
:103AC0000895A1E21A2EAA1BBB1BFD010DC0AA1F5F
:103AD000BB1FEE1FFF1FA217B307E407F50720F077
:103AE000A21BB30BE40BF50B661F771F881F991FF2
:103AF0001A9469F760957095809590959B01AC013B
:103B0000BD01CF010895EE0FFF1F881F8BBF0790E7
:103B1000F691E02D1994B7FF04C003D0821B930BDC
:103B2000089509D0A59F900DB49F900DA49F800D7E
:103B3000911D11240895A29FB001B39FC001A39FBE
:103B4000700D811D1124911DB29F700D811D1124D6
:103B5000911D08950F931F93CF93DF9382309105AA
:103B600010F482E090E0E091F706F091F80630E082
:103B700020E0B0E0A0E0309799F42115310509F478
:103B80004AC0281B390B24303105D8F58A819B8126
:103B90006115710589F1FB0193838283FE0111C0D8
:103BA000408151810281138148175907E0F048177D
:103BB000590799F4109761F012960C931297139687
:103BC0001C933296CF01DF91CF911F910F910895F1
:103BD0000093F7061093F806F4CF2115310551F044
:103BE0004217530738F0A901DB019A01BD01DF013B
:103BF000F801C1CFEF01F9CF9093F8068093F70653
:103C0000CDCFFE01E20FF31F819391932250310932
:103C100039832883D7CF2091F5063091F606232BE0
:103C200041F420910202309103023093F606209372
:103C3000F50620910002309101022115310541F471
:103C40002DB73EB74091040250910502241B350B5D
:103C5000E091F506F091F606E217F307A0F42E1BAB
:103C60003F0B2817390778F0AC014E5F5F4F2417E0
:103C7000350748F04E0F5F1F5093F6064093F50648
:103C8000819391939FCFF0E0E0E09CCFCF93DF93BF
:103C90000097E9F0FC01329713821282A091F70697
:103CA000B091F806ED0130E020E01097A1F42081FA
:103CB0003181820F931F2091F5063091F606281767
:103CC000390709F061C0F093F606E093F506DF913D
:103CD000CF910895EA01CE17DF07E8F54A815B81AD
:103CE0009E0141155105B1F7E901FB83EA83499132
:103CF0005991C40FD51FEC17FD0761F480819181A4
:103D00000296840F951FE9019983888382819381AC
:103D10009B838A83F0E0E0E012968D919C9113974B
:103D20000097B9F52D913C911197CD010296820F24
:103D3000931F2091F5063091F6062817390739F6BA
:103D4000309751F51092F8061092F706B093F606E8
:103D5000A093F506BCCFD383C28340815181840FE9
:103D6000951FC817D90761F44E5F5F4F888199810D
:103D7000480F591F518340838A819B81938382839B
:103D80002115310509F0B0CFF093F806E093F7065E
:103D90009ECFFD01DC01C0CF13821282D7CF4F929C
:103DA0005F926F927F928F929F92AF92BF92CF92CB
:103DB000DF92EF92FF920F931F93CF93DF938C01CB
:103DC000009791F4CB01DF91CF911F910F91FF905C
:103DD000EF90DF90CF90BF90AF909F908F907F90AB
:103DE0006F905F904F90B6CEFC01E60FF71F9C01DD
:103DF00022503109E217F30708F4AAC0D901CD9186
:103E0000DC911197C617D70718F1C530D10570F0AE
:103E1000CE0104978617970748F0C61BD70B229749
:103E2000C193D1936D937C93CF0130DFC801DF91B3
:103E3000CF911F910F91FF90EF90DF90CF90BF90A7
:103E4000AF909F908F907F906F905F904F9008956C
:103E50005B01AC1ABD0A4C018C0E9D1EA091F706A9
:103E6000B091F806512C412CF12CE12C109731F532
:103E70008091F5069091F6068815990509F05CC0C9
:103E80004616570608F058C0809100029091010232
:103E9000009741F48DB79EB74091040250910502FE
:103EA000841B950BE817F90708F052C0F093F6064B
:103EB000E093F506F90171836083B8CF8D919C91F1
:103EC000119712966C90129713967C901397A815E1
:103ED000B90559F56C0142E0C40ED11CCA14DB04CB
:103EE00020F1AC014A195B09DA011296159780F0AE
:103EF0006282738251834083D9016D937C93E11474
:103F0000F10471F0D7011396FC93EE9312978ECFC4
:103F100022968C0F9D1FF90191838083F301EFCFCF
:103F2000F093F806E093F70681CF4816590608F497
:103F30002C017D01D3019ACFCB010CDE7C010097CF
:103F400039F0AE01B80107D0C801A0DE87016ECFFD
:103F500010E000E06BCFFB01DC0102C001900D928C
:103F600041505040D8F70895FB01DC0101900D92BB
:103F70000020E1F70895262FF999FECF1FBA92BDD0
:103F800081BD20BD0FB6F894FA9AF99A0FBE01963A
:103F9000089511E0CCE1D1E000E005C0802FFE01E2
:103FA000B2DD2196011DCD31D10780E00807B1F7C0
:043FB000F894FFCFB3
:103FB4000000F9068000E8030000330031002E0001
:103FC4002F001E003800370036003500340016007C
:103FD40003001500140013000E000D000C000B006C
:103FE400050001202020202020202020202D2D2D00
:103FF40020202057454C434F4D452020202D2D2D6A
:1040040020202020202020002020202020202020CC
:10401400202D2D20494E495449414C205345545597
:10402400502D2D2020200020312E2047796E6563ED
:104034006F6C6F6769632073616D706C652070725B
:10404400657061726174696F6E0020322E2046695A
:104054006E65204E6565646C65204173706972619C
:104064007465730020332E204D7563696F6420736B
:10407400706563696D656E730020342E20426F6431
:104084007920466C756964200020312E2047796EB2
:1040940065636F6C6F6769632073616D706C652015
:1040A4007072657061726174696F6E20002056438E
:1040B40054494D45205643504531205643504532CE
:1040C400205452414E53484F4C44205452414E5375
:1040D400504F5745520020202031322020202034D8
:1040E4003020202020203430202020202030352073
:1040F40020202020202020203330200020202030A9
:104104003320202020343020202020203430202050
:104114002020203035202020202020202020333053
:10412400200020342E20426F647920466C75696427
:104134000020352E537570657266696369616C2061
:104144004272757368696E677320616E642073725E
:104154006170696E67730020202030332020202096
:1041640037302020202020373020202020203035D8
:104174002020202020202020203035200020362E12
:10418400204554430020372E4D616E75616C00202C
:1041940020203320202020203730202020202037CA
:1041A40030202020202035202020202020202020E6
:1041B400203035200020352E2053757065726669D5
:1041C4006369616C204272757368696E67732061FC
:1041D4006E642073726170696E6773200020362EDE
:1041E40020455443200020372E204D616E75616CAC
:1041F4002000536F6C656E6F69642031206F6E20F0
:104204000073746F70627574746F6E20707265736E
:1042140073656400204D6F7665204D6F746F722056
:10422400557020416374696F6E202E2E2E2E2E2E13
:104234002E004D4F56455F4D00204D6F7665204D45
:104244006F746F7220446F776E20416374696F6E70
:10425400202E2E2E2E2E2E2E004D4F56455F4C0016
:104264004D4F56455F4800204D6F7665204D6F7465
:104274006F72205061696E7420416374696F6E209F
:104284002E2E2E2E2E2E2E0020536C696465204D6A
:104294006F746F72204F757420416374696F6E2060
:1042A4002E2E2E2E2E2E2E00534C4944455F4F5554
:1042B400540020536C696465204D6F746F722049FB
:1042C4006E20416374696F6E202E2E2E2E2E2E2E9C
:1042D40000534C4944455F494E0020566163637561
:1042E4006D204D6F746F7220416374696F6E202E60
:1042F4002E2E2E2E2E2E00696E637265617365005C
:10430400696E6372656173653200646569637265C1
:104314006173650064656963726561736531006C1E
:1043240065667400646F776E00534C4944455F4F73
:104334005000534C4944455F4F5031004D6F7665F2
:10434400206D6F746F7220312072657665727365AB
:104354002072756E6E696E6720004D6F7665206DF4
:104364006F746F72203220666F727761726420728C
:10437400756E6E696E672000000000003613B51874
:10438400000000007A17B518D816F216E4165B1769
:104394000D0A006E616E00696E66006F766600003D
:020000023000CC
:10FC000001C0ECC0112484B7882369F0982F9A7042
:10FC1000923049F081FF02C097EF94BF282E80E018
:10FC200000D10C94000085E08093810082E08093F5
:10FC3000C00088E18093C10080E18093C40086E029
:10FC40008093C2008EE0EDD0279A84E020E33CEF61
:10FC500091E0309385002093840096BBB09BFECF4B
:10FC60001F9AA8954091C00047FD02C0815089F7B6
:10FC7000CCD0813461F4C9D0C82FD9D0C23879F141
:10FC8000C13811F488E001C083E0B8D0A4C0823448
:10FC900011F484E103C0853419F485E0D0D09BC011
:10FCA000853579F4B2D0082FB0D0182F87FF03C064
:10FCB0008BB7816002C08BB78E7F8BBF000F111F87
:10FCC00089C0863581F4A1D08D3459F49ED0CBB74C
:10FCD0009CD0C170880FC82BCBBF81E0B0D080E032
:10FCE000D4CF83E0FBCF843609F046C08ED0C82F36
:10FCF000D0E0DC2FCC2789D0C82B87D0B82E7E014E
:10FD0000C12C32E0D32E81D0F60181936F01F1E056
:10FD1000EF1AF108C1F78BD085E4B81211C06E015B
:10FD2000EEEFDE1A7801C0E0D2E0CC16DD0609F471
:10FD300052C06991C70192D0FFEFEF1AFF0AF5CFC9
:10FD400040E050E063E0C80149D07801C12C92E066
:10FD5000D92EF601419151916F0161E0C7013ED06A
:10FD60002297F2E0EF0EF11C209799F740E050E067
:10FD700065E0C80133D02FC08437F9F446D0C82FCE
:10FD8000D0E0DC2FCC2741D0C82B3FD0D82E4FD08D
:10FD9000780185E4D8120AC0C70158D02FD0219726
:10FDA000EFEFEE1AFE0A2097B9F715C0F701879119
:10FDB0007F0124D02197D1F70EC0853739F437D091
:10FDC0008EE11CD088E91AD081E05FCF813511F433
:10FDD00088E027D02CD080E111D04ACFFC010A0165
:10FDE00067BFE895112407B600FCFDCF667029F0C7
:10FDF000452B19F481E187BFE89508959091C000E3
:10FE000095FFFCCF8093C60008958091C00087FFC6
:10FE1000FCCF8091C00084FD01C0A8958091C600F0
:10FE20000895E0E6F0E098E1908380830895EDDFA7
:10FE3000803219F088E0F5DFFFCF84E1DFCFCF9388
:10FE4000C82FE3DFC150E9F7CF91F1CFF999FECF89
:10FE500092BD81BDF89A992780B50895262FF9990A
:10FE6000FECF1FBA92BD81BD20BD0FB6F894FA9A9D
:08FE7000F99A0FBE01960895F6
:02FFFE000008F9
:040000033000FC00CD
:00000001FF
